:020000040800F2
:1000000080040020D50000080111000891100008AC
:1000100000000000000000000000000000000000E0
:10002000000000000000000000000000BD110008FA
:1000300000000000000000004911000895120008AF
:10004000E7000008E7000008E7000008E7000008F4
:10005000E7000008E7000008E7000008E5010008E5
:10006000E7000008E7000008E7000008E7000008D4
:10007000E7000008E7000008E7000008E7000008C4
:10008000E7000008E7000008E700000800000000A3
:10009000E7000008E7000008E7000008E7000008A4
:1000A000E7000008E7000008E7000008E700000894
:1000B000E7000008E700000800000000E700000873
:1000C0000348854600F07CF800480047BD1700084B
:1000D000800400200448804704480047FEE7FEE70C
:1000E000FEE7FEE7FEE7FEE721130008C100000877
:1000F00030B50B46014600202022012409E00D46C0
:10010000D5409D4205D31D469540491B2546954047
:1001100040191546521E002DF1DC30BDF0B51FB45C
:100120000646002082B005464024019100901BE065
:10013000019922460F46304600F030F8049A059B9C
:10014000801A994110D310461946224600F016F83D
:10015000361A8F410197224601200021009F00F0AE
:100160000DF838184D4100902046641E0028DFDC51
:10017000019B00982946324607B0F0BD10B5202AF1
:1001800004DB0146203A9140002010BD914020231D
:100190009C1A0346E3401943904010BD10B5202A35
:1001A00004DB0846203AD040002110BD0B46D34066
:1001B000D0402024A21A91400843194610BD0000E7
:1001C000064C0125064E05E0E36807CC2B430C3CAA
:1001D00098471034B442F7D3FFF776FFD0180008E1
:1001E000F018000810B50120400300F035F810BDEC
:1001F000FEE731B500F004F9044600F001F900997A
:10020000001B8842F9D338BD012110B5490388424B
:100210000BD108A001F08EFA00F0D2FF002805D023
:1002200008A001F087FA00F0FFFF10BD07A001F061
:1002300081FA10BD0A20455854493133D6D0B6CF83
:10024000200A0000B9D8BBFA200D0A00D2E2CDE2A4
:10025000D6D0B6CF0D0A000010B504494A69024253
:1002600002D04861FFF7D0FF10BD0000000401403C
:10027000F8B500230124A7E027469F403A4070D0FC
:100280004D68022D01D0122D14D1DD08AD002D18BE
:1002900000952D6A5E07AC46F50E0F26AE46AE40C1
:1002A0006546B543AC460E697546AE4065462E437D
:1002B000009D2E624D68012D05D0022D03D0112D19
:1002C00001D0122D16D185680326AC465D00AE46DE
:1002D000AE406546B543AC46CE687546AE40654611
:1002E0002E43866046680D79BE43ED06ED0F9D40B6
:1002F0003543456006685F000325BD40AE46AE430A
:100300000D79B446AE07B60FBE4065462E43066073
:10031000C6687546AE438D68BD403543C5604D68BF
:10032000ED0050D52B4D6E6B26436E639E082A4D13
:10033000B6007519AC46AD689E07360F0F27B7405B
:10034000BD4305273F07B84201D100271AE0234FDC
:10035000B84201D1012715E0214FB84202D102274E
:1003600010E030E01F4FB84201D103270AE01E4FD2
:10037000B84201D1042705E01C4FB84201D105273E
:1003800000E00627B7402F436546AF60184D2E6842
:100390004F689643FF0300D516432E606E684F6882
:1003A0009643BF0300D516436E60AE684F68964310
:1003B000FF0200D51643AE60EE684F689643BF0259
:1003C00000D51643EE605B1C0A681546DD4000D080
:1003D00052E7F8BD00100240000001400004005048
:1003E00000080050000C005000100050001C00508D
:1003F000000401400069084000D00120704700005F
:1004000001480068704700000000002002480168B1
:10041000491C0160704700000000002010B506482C
:100420000168402211430160002000F007F800F04D
:1004300019F8002010BD00000020024010B504464D
:1004400007487D21C9000068FFF752FE00F048FD13
:1004500000222146501E00F02BF8002010BD0000A5
:100460000400002010B50C48416B01221143416388
:10047000816B02041143816300221146501F00F07A
:1004800017F800221146901E00F012F800221146C3
:10049000501E00F00DF810BD00100240C106C90E3C
:1004A00001208840014908607047000000E100E039
:1004B00010B500F027FE10BD02494A6882434A6029
:1004C000704700000070004002494A6802434A60D9
:1004D0007047000000700040054801680222114387
:1004E00001600448016904221143016130BF704773
:1004F0000070004000ED00E0F8B5664907460125B0
:100500000020ED03624B634A4031102F6FD011DCA5
:10051000012F77D0022F6CD0042F6BD0082F24D15D
:10052000C9680324240321407BD0AD109414A94250
:100530007CD0A0E00326584C3604202F0BD0402F4F
:1005400035D0FF3F012F10D1C968314069D07C04FC
:10055000A1426BD096E00B690969012731403F0445
:10056000B94203D1990559E02846F8BD01256D042B
:10057000A94203D19907F8D54848F8BDB142FCD14A
:1005800011688903F9D51168032000050140012095
:100590000005091A09D0091A05D0814201D1404845
:1005A000F8BD2046F8BD3F48F8BD3F48F8BDC968D2
:1005B0000125AD06294006D0A942F7D191688907E7
:1005C000F4D53A48F8BD11688901FBD5D068D168E7
:1005D0008002374D000F2D5C0802810FD068491C46
:1005E000C0030AD41068C00605D5204606E045E0E1
:1005F00008E023E030E0184600E02E486843FFF7AB
:1006000077FDF8BDCC68A407A40F0CD0022C0DD048
:10061000012C10D0032CF4D1096989050029A3DB32
:10062000F8BD16E002E000F0D7F9F9E711684907D4
:10063000F6D51846F4E700F0DFF9F1E7CC680C26B0
:10064000344006D0082CF1D0042CF4D00C2CE3D08C
:10065000E6E700F0B1F9E3E7CC680326B6023440E0
:10066000F7D00127FF02BC42E0D07A109442E2D0DA
:10067000B442D1D0D4E7A142DDD0D1E7916B490299
:10068000E7D4CDE7012212049142D4D0C8E700009C
:100690000024F4000010024000093D008890000092
:1006A00020A1070040420F0080841E00006CDC0285
:1006B000BC18000800127A00F8B5044600785E4DB8
:1006C000800672D55C4E0027403EB06BC00004D45B
:1006D000B06BA9050843B063012758480168C905F4
:1006E00011D40168821511430160FFF789FE009063
:1006F00005E0FFF785FE0099401A642837D84F4877
:100700000068C005F5D532680321090560680A4014
:100710000140914208D08103890F032904D1316837
:10072000890301D50120F8BD2A69032109040A4083
:1007300022D0084090421FD0207880061CD528691E
:100740002A6988430121C9040A432A612A698A4324
:100750002A612861C0050FD5FFF752FE009008E01E
:10076000FFF74EFE0099411A3548814201D9032016
:10077000F8BD28698005F3D561688803800F0328D8
:1007800005D132680005824301400A43326028697E
:10079000032261681204114008432861002F04D02D
:1007A000B06B012109078843B0632078C00705D0EA
:1007B000E868A168800880000843E8602078800726
:1007C00005D5E8680C218843E1680843E860207893
:1007D000400706D5E8680321890288432169084358
:1007E000E8602078000706D5E868032109038843FC
:1007F00061690843E8602088C00506D5E8680321E0
:1008000009048843A1690843E8602078400606D5BA
:10081000E868012189068843216A0843E860207856
:10082000000606D5E868032189048843E169084386
:10083000E8600020F8BD0000401002400070004059
:1008400088130000F8B5054653480E460068C007F7
:10085000C00FB0420AD250480168490849003143EC
:1008600001600068C007C00FB0426FD128784B4CC0
:10087000800705D5E068F0218843A9680843E06057
:100880002878C00752D06868022817D0032818D0EB
:100890002168012818D08905002957DAE1688908FC
:1008A00089000143E160FFF7ABFD69680746022953
:1008B00012D003291CD0012926D033E021688903F6
:1008C000EAE721688901E7E74907E5E7FFF798FDCF
:1008D000C11B3348814223D8E0680007800F0228FB
:1008E000F4D123E0FFF78CFDC11B2D48814217D8BE
:1008F000E0680007800F0328F4D117E0FFF780FDC0
:10090000C11B274881420BD8E0680007800F0128EF
:10091000F4D10BE0FFF774FDC11B2148814201D9DE
:100920000320F8BDE0680007800FF3D11A48016882
:10093000C907C90FB1420BD90168490849003143C1
:1009400001600068C007C00FB04201D00120F8BDAF
:100950002878400706D5E068072109028843E9683E
:100960000843E0602878000707D5E0680721C9023E
:1009700088432969C9000843E06000F03DF8E16858
:10098000084A0906090F515CC84007490860002061
:10099000FFF754FD0020F8BD002002400010024087
:1009A00088130000AC18000804000020014800680B
:1009B0007047000004000020044805490068C96829
:1009C000044A4905490F515CC840704704000020A3
:1009D00000100240C5180008044805490068C968AD
:1009E000044A8904490F515CC84070470400002044
:1009F00000100240C518000810B5184AD1680C2034
:100A0000084004280BD0082810D00C2810D05068BB
:100A10000004410F0120C003491C884010BD10682C
:100A2000C00601D50E4810BD0E4810BD0E4810BDC1
:100A300088020E4B000F185C0902D368890F491C0D
:100A4000DB0301D5084A05E01268D20601D5044A45
:100A500000E0044A5043FFF74BFB10BD001002407A
:100A600000093D000024F40000127A00BC180008C0
:100A7000F8B504460078FE4DC0074AD0E868000784
:100A8000800F022807D0E8680007800F032809D1EB
:100A9000E868C00306D5286880033AD56068002856
:100AA00073D036E0012062680004824203D12968D5
:100AB0000143296011E0052301211B0489049A42A6
:100AC0002A6802D10A432A60F1E782432A602A6831
:100AD00002400092286888432860606800280CD093
:100AE000FFF78EFC064604E0FFF78AFC801B6428B3
:100AF0007ED828688003F7D50BE0FFF781FC064617
:100B000004E0FFF77DFC801B6428F1D8286880038F
:100B1000F7D42078800741D5E8681F270007800FA9
:100B20003F02012807D0E8680007800F032809D199
:100B3000E868C00306D42868400717D5E068012894
:100B400023D113E0E068002817D0296809229143D7
:100B500001432960FFF754FC064604E0FFF750FC10
:100B6000801B0228C4D828684007F7D56868216927
:100B7000B84309020843686010E028684008400054
:100B80002860FFF73DFC064605E095E0FFF738FCDE
:100B9000801B0228ACD828684007F7D42078C0060C
:100BA00072D5E868B34E0007800F0AD0E0690028CC
:100BB0002868B1495AD008432860FFF721FC07464E
:100BC00044E02868800502D5E069002874D0606A96
:100BD00069683140884212D900F0B8FA0028AFD1D4
:100BE0006868616AB043084368606868000200E0B2
:100BF000DCE0218C000A0906084368600FE06968A0
:100C0000B143014369606868218C0002000A09064B
:100C100008436860606A00F099FA002890D1606A21
:100C2000410B0120C003491C8840E96809060A0FEE
:100C30009249895CC840924908600020FFF7FEFB9A
:100C400022E0FFF7DDFBC01B02288BD82868800557
:100C5000F7D56868616AB043084368606868218CAA
:100C60000002000A0906084368600DE08843286016
:100C7000FFF7C6FB064604E0FFF7C2FB801B022815
:100C800088D828688005F7D420787E4E000723D5C1
:100C900060690028306910D0012108433061FFF7F6
:100CA000AFFB074604E0FFF7ABFBC01B02287DD873
:100CB00030698007F7D50FE001E14008400030615E
:100CC000FFF79EFB074604E0FFF79AFBC01B0228D4
:100CD0006CD830698007F7D42078400760D5A86BBE
:100CE0000027C00005D4A86B012109070843A863A9
:100CF000012765480168C90511D4016882151143AF
:100D00000160FFF77DFB009005E0FFF779FB00999C
:100D1000401A64284AD85C480068C005F5D5564892
:100D2000A268824203D131690143316111E001219E
:100D30008902002A07D005231B029A4203D1326997
:100D40000A433261EFE73269824332613069884396
:100D50003061A06800280ED0FFF752FB009006E03B
:100D6000FFF74EFB0099411A484881421ED830696E
:100D70008005F5D50DE0FFF743FB009006E0FFF797
:100D80003FFB0099411A414881420FD830698005E4
:100D9000F5D4002F04D0A96B012000078143A9637B
:100DA0002078800630D53A48421400E080E0A169FE
:100DB000002916D0AB6801210B43AB606B6B0B4372
:100DC0006B63016A11430162FFF71AFB064604E0F8
:100DD000FFF716FB801B02286AD8A8688007F7D5A2
:100DE00012E0A96849084900A960016A91430162BB
:100DF000FFF706FB064604E0FFF702FB801B022814
:100E000056D8A8688007F7D4A06A002855D0E968AA
:100E10000907890F032952D00126360602282868BF
:100E200005D0B0432860FFF7EBFA044642E0B04338
:100E30002860FFF7E5FA074604E0FFF7E1FAC01B78
:100E4000022835D828688001F7D4216BE06AEA6867
:100E50000843616BFD231B049A4311430843E86078
:100E6000286830432860FFF7CBFA044617E00000FB
:100E70000010024000E0000000010000AC18000873
:100E80000400002040100240007000408813000061
:100E900000000140FFF7B4FA001B022808D82868B8
:100EA0008001F7D509E0FFF7ABFA001B022801D952
:100EB0000320F8BD28688001F5D40020F8BD01208A
:100EC000F8BD0000042204490428086902D09043B8
:100ED000086170471043FBE700E000E07047000046
:100EE000094910B5401E884201D9012010BD074CA8
:100EF00060610321081F00F005F90020A0610720B0
:100F00002061002010BD0000FFFFFF0000E000E0B6
:100F100010B5FFF7E3FF10BD70B5040005D02546FE
:100F20006035687A002802D006E0012070BD0020FC
:100F30002872204600F026F8242068722068016894
:100F4000490849000160606A002802D0204600F08C
:100F500011FA204600F0A4FA0128E7D02068416881
:100F60000922D20291434160206881682A2291437C
:100F7000816020680168012211430160204600F071
:100F80005FFA70BD00B500680D4985B0884215D183
:100F90000C48416B0122920311434163032040023C
:100FA0000090022001900120029003200390042071
:100FB0000490052069460007FFF75AF905B000BD07
:100FC0000038014000100240FFB506460446603676
:100FD000707A83B00D46202858D1002D0CD005988A
:100FE000002809D00120A1680003814207D12069AF
:100FF000002804D1E80702D0012007B0F0BD307A04
:10100000012843D0012030720020E0662120707258
:10101000FFF7F6F901902746403705983882059882
:10102000788218E0788A401E788206980090002224
:1010300080212046019B00F04BFB002818D10120A5
:10104000A1680003814202D12069002812D02168E2
:10105000287888626D1C788A0028E3D10698009071
:10106000002240212046019B00F032FB002808D0DE
:101070000320C2E728882168C005C00D8862AD1C26
:10108000E9E72020707200203072B6E70220B4E752
:10109000FEE7000008B50B48C26A80210A43C2621D
:1010A000C26A0A400092C16A01221143C162C16A48
:1010B00011400091C26A04210A43C262C06A08401A
:1010C000009008BD0010024010B50C480A490160AC
:1010D000E1214902416000218160C16001618161BB
:1010E000C1610C22016242614162FFF715FF0028D5
:1010F00001D0FFF77DF810BD003801400C00002042
:10110000704700008307FF22DB0E9A408907090E13
:10111000994000280BDA0007000F083883080848B8
:101120009B001818C36993430B43C361704783083E
:1011300004489B001B1818689043084318607047C8
:1011400000ED00E000E400E07047000070B51749D2
:101150000023CA681206120F18D18A6B154CD500ED
:10116000134A02D51268224009E08E6B01252D0733
:101170002E438E6312688E6B2240AE438E63A24272
:1011800004D103218903884200D101230A48016860
:1011900049084900194301600068C007C00F984220
:1011A00001D0012070BD002070BD00000010024081
:1011B000007000400018000000200240704700004E
:1011C000F8B5002501260F4F2C4676031E20FFF7A9
:1011D00010F831463846FFF70DF9012808D0641C95
:1011E000E4B2052CF2D908A000F0A4FA0020F8BD62
:1011F0006D1CEDB20024642DE8D307A000F09AFA2C
:101200000120F8BD00080050B0B4CFC2CAB1BCE4A0
:10121000B2BBD7E30D0A0000B3A4B0B4B5E7D4B4B1
:10122000B0B4C5A50D0A000010B5FF200130FFF7CE
:1012300043F9054801680422114301604015FFF796
:1012400043F9FFF749F910BD0070004000B50E48A2
:1012500087B0C26A04210A43C262C06A084005908E
:10126000C80200900948019002200290694608488F
:10127000FEF7FEFF012211460720FFF719F90720AC
:10128000FFF70CF907B000BD00100240000011107C
:101290000008005010B5FFF7B9F8FFF739FE10BD90
:1012A00030B51E489DB001680322D2029143C2149A
:1012B000891801600220009010200124002504906C
:1012C00003940A956846FFF7D3FB002800D0FEE799
:1012D0000F200EA931C1119500210EA81295FFF71C
:1012E000B1FA002800D0FEE713A815951394FFF774
:1012F000E3F9002800D0FEE7FFF758FB7D21C90085
:10130000FEF7F6FEFFF7ECFD0420FFF7DBFD002201
:101310001146501EFFF7CCF81DB030BD00700040E4
:1013200010480168821511430160C1680E4A1140DE
:10133000C16001680D4A1140016081684908490097
:10134000816001680122920491430160C168FD221D
:1013500012049143C160002101610549C003886006
:1013600070470000001002400C40FF88F6FFF6FEB8
:1013700000ED00E010B5818CC90707D001684A680C
:1013800001235B049A43836A1A434A60818C89076C
:1013900007D501684A6801231B049A43C36A1A43AC
:1013A0004A60818C490707D501684A6801239B047C
:1013B0009A43036B1A434A60818C090707D5016879
:1013C0004A680123DB039A43436B1A434A60818CCA
:1013D000C90607D50268916801231B039943836BF3
:1013E00019439160818C890607D501688A680123B9
:1013F0005B039A43C36B1A438A60818C490612D5FA
:1014000003685A6801210905046C8A4322435A6023
:10141000026C8A4207D10268516803235B05994335
:10142000436C19435160818C090607D501684A68ED
:101430000123DB04806C9A4302434A6010BD000024
:10144000F8B500260446C666FEF7DAFF05462068B2
:101450000068124F000709D501212B4600224905DB
:101460002046009700F034F900280DD1206800686C
:1014700040070BD501212B46002289052046009705
:1014800000F026F9002801D00320F8BD20206034A8
:101490006072A07226720020F8BD0000FFFFFF01FD
:1014A000FEB50446016880682269E36910436269F9
:1014B000102700261A4310430A683546784B1A4015
:1014C00002430A6020684168032212039143E268E4
:1014D00011434160734A2168A069914201D0226A98
:1014E00010438A680B231B029A4302438A606E4AA8
:1014F00020686E4990420CD1C8688007800F06D0E2
:10150000012843D002283FD0032826D124E0012718
:1015100023E0674A90420AD1C8680C21084031D0C4
:10152000042833D008282FD00C2816D114E0614AA3
:10153000904227D0604A904224D05A4A90420CD11F
:10154000C9680320800201401CD01015091A1DD063
:10155000091A19D0814200D108270220FEF7CCFFDA
:101560000190504B514922684039D81300929A4259
:1015700035D1002F0CD0022F0DD0042F12D0082F00
:101580001CD113E00027E8E70227E6E70427E4E799
:10159000FFF712FA08E00868C00601D5474805E0E1
:1015A000474803E0FFF728FA002873D0626851002B
:1015B0005118814202D81103814201D2012569E00C
:1015C000010E06025008002330185941FEF7A6FD0F
:1015D000032109023B4A411A914259D9EEE7E269D7
:1015E00082422DD13B0000F0AFF80906080B241908
:1015F0002424241F2400019812E0FFF7EDF90FE0E6
:1016000008686168C00602D548082F4A01E02F4AE1
:1016100048088018FEF76CFD86B20BE0FFF7ECF986
:10162000616840004A08F4E7616801224808120432
:10163000EFE70125310909013007400F084327E092
:101640003B0000F081F809070A0D061D0606062971
:101650000600B3E7FFF7B0F914E0FFF7BDF911E0BA
:1016600008686168C00602D54A08144801E01448B9
:101670004A081018FEF73CFD81B20098C16009E0ED
:10168000FFF7BAF961684A088018FEF731FD80B2A9
:101690002168C8602846FEBD61684A08E9E7000085
:1016A000F369FFEF0048004000380140401002405D
:1016B00000440040004C00400050004000093D0044
:1016C0000024F400FFFC0F0000127A000048E8013B
:1016D000FFB581B017460E4604460A9D1DE0681C02
:1016E0001BD0002D05D0FEF78BFE0499401AA842AE
:1016F00013D920680168FF22A1329143016020685C
:101700008168490849008160202060346072A072BD
:1017100000202072032005B0F0BD2068C16930466A
:10172000884304D00020B842D9D00020F3E701203C
:10173000F9E7000010B5024A024900F021F810BD97
:10174000A11700080800002030B47446641E2578F4
:10175000641CAB4200D21D46635D5B00E31830BCE5
:10176000184702E008C8121F08C1002AFAD17047C2
:101770007047002001E001C1121F002AFBD1704711
:10178000F8B516460F460446002503E03946B04733
:10179000641C6D1C20780028F8D12846F8BD000094
:1017A00013B5044B012269460348FFF70DFC0120E5
:1017B0001CBD0000FFFF00000C000020FEF72EFE05
:1017C000FFF76EFDFFF766FCFFF77EFCFFF73EFDBF
:1017D00019A0FFF7AFFF1C4C6068C043800710D40E
:1017E0001AA0FFF7A7FFFFF7EBFC002807D01BA00C
:1017F000FFF7A0FF206808210843206013E019A02C
:101800000DE01B4C2069C00008D51AA0FFF792FF1D
:1018100020690121C9050843206104E01AA0FFF7EF
:1018200089FFFFF701FDFF24F5341BA0FFF782FFBE
:101830002046FEF7DEFCF8E768656C6C6F20776F7A
:10184000726C640D0A00000000700040B4FDBBFA29
:10185000BBBDD0D1B8B4CEBB0A000000BFAABBFA52
:101860000D0A0000BCCCD0F8D0DDC3DF0D0A0000AB
:10187000401002400AC8EDBCFEB8B4CEBBB2BBD625
:10188000D8D6C30A00000000CFB5CDB3C9CFB5E7A5
:10189000D0DDC3DF0D0A000068656C6C6F20776FC8
:1018A000726C643132330D0A000000000000000049
:1018B00000000000010203040607080903040608EB
:1018C0000C1018203000000000010203040000008A
:1018D000F0180008000000200C000000621700084B
:1018E000FC1800080C0000207404000072170008A7
:0C18F0000000000080841E0000000000CA
:04000005080000C12E
:00000001FF
